:020000040800F2
:100000006806002091010008B9010008BB01000842
:10001000BD010008BF010008C10100080000000088
:10002000000000000000000000000000C301000804
:10003000C501000800000000C7010008C901000850
:10004000CB010008CB010008CB010008CB01000860
:10005000CB010008CB010008CB010008CB01000850
:10006000CB010008CB010008CB010008CB01000840
:10007000CB010008CB010008CB010008CB01000830
:10008000CB010008CB01000871020008CB01000879
:10009000CB010008CB010008CB010008CB01000810
:1000A000CB010008CB010008CB010008CB01000800
:1000B000CB010008CB010008CB010008CB010008F0
:1000C000CB010008CB010008CB010008CB010008E0
:1000D000CB010008CB010008CB010008CB010008D0
:1000E000CB010008CB010008CB010008CB010008C0
:1000F000CB01000800F002F800F03AF80AA090E8FE
:10010000000C82448344AAF10107DA4501D100F0D2
:100110002FF8AFF2090EBAE80F0013F0010F18BF65
:10012000FB1A43F00103184794030000B4030000D6
:10013000103A24BF78C878C1FAD8520724BF30C813
:1001400030C144BF04680C607047000000230024E5
:1001500000250026103A28BF78C1FBD8520728BFD7
:1001600030C148BF0B6070471FB51FBD10B510BD33
:1001700000F044F81146FFF7F7FF00F031F900F006
:1001800062F803B4FFF7F2FF03BC00F069F8000067
:1001900011481249124B99423CBF50F8042B41F8C8
:1001A000042BF8D30F494FF000028B4238BF43F8BD
:1001B000042BFAD30C480047FEE7FEE7FEE7FEE714
:1001C000FEE7FEE7FEE7FEE7FEE7FEE70748084931
:1001D000084A094B70470000DC04000800000020BA
:1001E0000400002068060020F500000868000020D8
:1001F000680600206802002068020020754600F0B2
:100200002BF8AE4605006946534620F007008546A8
:1002100018B020B5FFF7DAFFBDE820404FF0000628
:100220004FF000074FF000084FF0000B21F00701DE
:10023000AC46ACE8C009ACE8C009ACE8C009ACE821
:10024000C0098D46704710B50446AFF300802046C4
:10025000BDE81040FFF795BF00487047040000203C
:1002600001491820ABBEFEE72600020070470000DF
:100270000B48006800F0020028B1094858300068B7
:10028000084908600AE00648006800F0040028B148
:100290000348006820F0040001490860704700002E
:1002A00000240140000000201D48006840F00400C8
:1002B0001B4908601B48006840F0806019490860CD
:1002C000081D008820F40050091D088015480C30D6
:1002D000006820F0406013490C310860081F006876
:1002E00040F04060091F08600D48006840F00100C0
:1002F0000B4908600C48006820F002000A490860B9
:100300000846808820F0010088800846C06820F0F8
:100310000300C8600846806840F0030088607047AA
:100320001C380240000802400000024011480068EA
:1003300040F001000F49086000BF0E48006800F05F
:1003400002000028F9D00B480830006820F00100B6
:100350000849083108600846006840F0010008605C
:1003600000BF04480830006800F00C000428F8D1F1
:1003700070470000003802400848008840F40050F0
:10038000064908800846008820F400500880084686
:10039000008820F4005008807047000014080240D4
:1003A00030B50546002217E0002412E007230DE0D7
:1003B00002EB42002844005D184100F0010010B13A
:1003C00000F068F801E0FFF7D7FF5B1E002BEFDAC3
:1003D000641C032CEADB521C082AE5DB002030BD3C
:1003E00000B587B0FFF7A2FFFFF75EFF01200346CD
:1003F00002460021009001A800F03EF801200346CB
:1004000002460146009001A800F036F801200023C2
:1004100002460221009001A800F02EF801200023DE
:1004200002460321009001A800F026F808200123CD
:1004300003220421009001A800F01EF801200023EF
:1004400005221146009001A800F016F807200023AD
:1004500001220621009001A800F00EF800200346BA
:1004600001220721009001A800F006F801A8FFF77B
:1004700097FF002007B000BD30B5039C01EB41059C
:10048000425501EB410505446B7001EB4105054404
:10049000AC7030BD0848008840F400500649088020
:1004A0000846008840F4005008800846008820F480
:1004B000005008807047000014080240DC04000867
:1004C000000000200400000030010008E0040008E3
:1004D00004000020640600004C0100080000000039
:04000005080000F5FA
:00000001FF
